:020000040800F2
:20000000A006002059010008610100086301000800000000000000000000000000000000E2
:2000200000000000000000000000000065010008000000000000000067010008A90E000823
:200040006B010008000000006B0100086B0100086B0100086B0100086B0100086B01000874
:20006000000000006B0100086B0100086B0100086B0100086B0100086B01000800000000C8
:200080006B01000800000000000000006B0100086B0100086B0100086B0100086B010008A8
:2000A0006B0100084D0C00086B0100086B0100086B01000800F002F800F03EF80CA030C85B
:2000C000083824182D18A246671EAB4654465D46AC4201D100F030F87E460F3E0FCCB64604
:2000E0000126334200D0FB1AA246AB46334318477010000090100000103A02D378C878C119
:20010000FAD8520701D330C830C101D504680C60704700000023002400250026103A01D3E2
:2001200078C1FBD8520700D330C100D50B6070471FB51FBD10B510BD00F0DAF81146FFF74E
:20014000F7FF00F03BFF00F0F2F803B4FFF7F2FF03BC00F0F9F800000748804707480047BB
:20016000FEE7FEE7FEE7FEE7FEE7FEE704480549054A064B70470000690F0008B5000008F3
:20018000A0000020A0060020A0020020A0020020002203098B422CD3030A8B4211D300237A
:2001A0009C464EE003460B433CD4002243088B4231D303098B421CD3030A8B4201D39446FA
:2001C0003FE0C3098B4201D3CB01C01A524183098B4201D38B01C01A524143098B4201D347
:2001E0004B01C01A524103098B4201D30B01C01A5241C3088B4201D3CB00C01A52418308F1
:200200008B4201D38B00C01A524143088B4201D34B00C01A5241411A00D201465241104644
:2002200070475DE0CA0F00D04942031000D34042534000229C4603098B422DD3030A8B42E4
:2002400012D3FC22890112BA030A8B420CD3890192118B4208D3890192118B4204D389015C
:200260003AD0921100E08909C3098B4201D3CB01C01A524183098B4201D38B01C01A524193
:2002800043098B4201D34B01C01A524103098B4201D30B01C01A5241C3088B4201D3CB005B
:2002A000C01A524183088B4201D38B00C01A5241D9D243088B4201D34B00C01A5241411A03
:2002C00000D20146634652415B10104601D34042002B00D54942704763465B1000D3404207
:2002E00001B50020C046C04602BD704770477047754600F025F8AE46050069465346C00867
:20030000C000854618B020B5FFF730FF60BC00274908B6460026C0C5C0C5C0C5C0C5C0C541
:20032000C0C5C0C5C0C5403D49008D46704710B50446C046C0462046FFF707FF10BD000094
:20034000004870473C00002001491820ABBEFEE7260002007047000000B589B007A800F006
:20036000D9F9032108A801700F200790002108A8C170417007A90920C00600F061F901A85B
:2003800000F0AFF80121480200F0BEFB01A9094800F06AF8074800F02DF80121054800F0A1
:2003A0001DF800BF0449034800F046F80028F9D009B000BD002401400100000110B50B46BF
:2003C0000021846A1C43846200BF0C4614432146416110BD0160704701617047002904D05D
:2003E000826801231A43826003E0826802231A438260704730B501460020002200238C6843
:200400000125ED072C438C6000BF8C68E30FDB07521C0F242403A24201D0002BF5D18C687E
:20042000E40FE407002C01D1086C00E0002030BD0146086C80B2704730B50246002000236B
:20044000012424060C40002C05D0946801252D06AC43234600E013681C460C40002C01D04D
:20046000012000E0002030BD10B50022C268084B1A400C7964030B6823438C682343CC685D
:2004800023430C6923434C6923431A43C26010BD03D2FFFF10B5044600BF01210D48FFF7A6
:2004A000CBFF0028F9D0072221460A48FFF786FF084800F011F800BF04210648FFF7BCFFF8
:2004C0000028F9D004210348FFF784FF0148FFF7AFFF10BD002401408168042211438160DF
:2004E00070470021016001718160C160016141617047000010B50121480400F0D5FA012180
:20050000880400F0D1FA0121880500F0CDFA00F077FA00F0E9F9FFF71FFF00F00DF9C4200D
:2005200003490870002000F015F800F0B9FB10BD3800002010B50446002C01D1012000E003
:20054000002002460221024800F0F0F810BD00000004004838B504460121C903264800F052
:2005600051F9012802D1244800F092F901204003030302220090214801781F4800F09EF960
:2005800000BF01211C4800F03DF90028F9D000BF0121C903184800F035F90028F8D02005BF
:2005A000010F154800F072F907E00121C903124800F028F9002800D138BD01210E4800F0DD
:2005C00021F90028F1D0E1B20B4800F05FF907E00121C903084800F015F9002800D1EBE7FC
:2005E0002021054800F00EF90028F1D02021024800F0FAF800BFDFE70054004038000020AF
:20060000002806D00649096810221143044A116005E00349096810229143014A11607047BC
:200620000020024001460020044A10684008400002460A431046014A1060704700200240E4
:20064000F0B50A4600210023002400BF3DE001258D402B4615681D402C469C4234D1157940
:20066000012D02D01579022D16D185684F000326BE40B543856055794E00B540866835431F
:200680008560858801268E40B5438580858896798E40B6B23543858005684F000326BE40C4
:2006A000B543056015794E00B540066835430560C5684F000326BE40B543C560D5794E0065
:2006C000B540C6683543C560491C1029BFD3F0BDF0B5002300244D07EE0E1546B5402B4680
:2006E000CD10AE0005462035AD594E07F70E0F26BE40B543CE10B60007462037BD51CD1021
:20070000AE003D46AD591D432C46CD10AD003E467451F0BD0449016000210171012141713B
:2007200000218171C1717047FFFF0000002A01D0816100E00185704700B58BB002A800F03B
:20074000B1F80121480500F0BFF9022108A801720121817203204002099008A8C1724172EA
:2007600009A90920C006FFF76BFF04220921C806FFF7AEFF04220A210920C006FFF7A8FFDA
:2007800000200790039004900590AB200690144802900020089002A9124800F041F801218F
:2007A000104800F023F80120400303030122002100900C4800F082F800BF0121094800F0B8
:2007C00021F80028F9D00621064800F05FF82021044800F009F8034800F05AF80BB000BDD0
:2007E000895E801000540040C1617047002904D0026801231A43026003E0026852085200D2
:200800000260704710B502460023002093691C460C402346002B01D0012000E0002010BD72
:2008200010B50A46002103685B085B0003600168144B1940946824025368234319430160D5
:200840000F2424061368A3430361036801242343036000218160C1601469936923431946BC
:20086000816083680124E40323438360D16803680B4303604168044B1940536919434160F8
:2008800010BD0000FFE0CF00FF7FFF07816270470168490849000160016801680122114312
:2008A000016070470021016041608160C16001610121C9034161002181617047F0B50C4658
:2008C00000214168074D2940A505AD0D1604FF273F043E4035431D43059E3543294341602C
:2008E000F0BD0000009800FC1CB56846FFF712FF012168460171002181710220009068467C
:20090000C171417169460348FFF79AFE0120FFF711FE1CBD0004004800218278002A27D0E4
:20092000184A03231B02D21803789B109B00D15802789207D30EFF229A400B4693431946C9
:2009400042789207120E03789B07DB0E9A4011430C4A03231B02D21803789B109B00D1508B
:200960000278D306DB0E01229A40064B1A6007E00278D306DB0E01229A40024B80331A60D9
:200980007047000000E100E010B5002819DA1A4A03071B0F083B9B089B00D2588307DC0E48
:2009A000FF23A3409A438B071B0E8407E40EA3401A43114B0407240F083CA408A4001A5144
:2009C00018E00E4A03231B02D21883089B00D2588307DC0EFF23A3409A438B071B0E8407AE
:2009E000E40EA3401A43054B032424021B198408A4001A5110BD00001CED00E000E100E0E2
:200A00001CB56846FFF786FE01216846017100218171032000906846C17141716946034849
:200A2000FFF70EFE032000F003F81CBD0014004810B50446002C06D0012C0FD0022C18D03E
:200A4000032C2CD120E0012211461648FFF76EFE002202211348FFF769FE10BD0022012122
:200A60001048FFF763FE002202210E48FFF75EFEF3E7012211460B48FFF758FE01220221A1
:200A80000848FFF753FEE8E7002201210548FFF74DFE012202210348FFF748FEDDE700BFCE
:200AA00000BFDAE700140048002905D0054A52690243044B5A6104E0024A52698243014B07
:200AC0005A61704700100240002905D0054AD2690243044BDA6104E0024AD2698243014B7F
:200AE000DA61704700100240002905D0054A12690243044B1A6104E0024A12698243014B1F
:200B00001A61704700100240002905D0054A92690243044B9A6104E0024A92698243014B3E
:200B20009A61704700100240002905D0054AD2680243044BDA6004E0024AD2688243014BE1
:200B4000DA6070470010024010B502460021002300205111002902D10C4C23680BE001298B
:200B600002D10A4C236A06E0022902D1074C636A01E0064C636BD106C90E01248C401C40BF
:200B8000002C01D0012000E0002010BD00100240024840680C2108407047000000100240A8
:200BA00001460020054A5068F02302469A43104602460A431046014A50607047001002404A
:200BC00001460020064A506807231B0202469A43104602460A431046014A50607047000047
:200BE00000100240002807D007490968012212061143054A116006E00349096801221206B6
:200C00009143014A1160704700100240074A52687B23DB039A43054B5A601A46526803466A
:200C20000B431A43014B5A60704700000010024001460020044A50688008800002460A43F0
:200C40001046014A506070470010024010B50120FFF770FC0E4800F0B6F804460120C003D0
:200C60002040002807D001200A4908706004400C0949088006E00020064908706004400C22
:200C8000064908800121024800F06AF810BD000000300140200000201E0000201C000020C7
:200CA00000B589B001210803FFF72EFF244800F05BF804A800F0B6F80021684601820F217B
:200CC000090281820021818304A91D4800F07EF8022168460173F0200290032168464173FC
:200CE000002181730121C17302A90920C006FFF7A7FC002205210920C006FFF7E9FC002222
:200D000006210920C006FFF7E3FC002207210920C006FFF7DDFC01226021094800F042F8C1
:200D20000121074800F00EF8192168460171032141710121817101A8FFF7EEFD09B000BD08
:200D400000300140002904D0028840231A43028003E00288014B1A4002807047BFFF00004F
:200D6000CA4302817047000010B504460B48844208D101218014FFF7D7FE0021A014FFF7DF
:200D8000D3FE0AE00648844207D101210014FFF7ABFE00212014FFF7A7FE10BD00300140A9
:200DA0000038004030B5002400230C110125A540ABB2002A03D085881D43858002E08588AC
:200DC0009D43858030BD01468889704710B500220288C1239B011A400B88CC892343CC8845
:200DE00023430C8923434C8923438C8923431A4302808288084B1A408B881A4382800B8A3F
:200E000003820288054B1A404B881A430280838B034C2340838310BDFFF00000FBFF0000EB
:200E2000FFF700000021018041800721090281800021C180018141818181C1810721018290
:200E40007047000070B504460C4860430C49401A4514002D07DC00250120FFF7E9FD00201B
:200E6000FFF768FB05E00020FFF7E2FD0120FFF761FBA8B2FFF76EFB70BD0000503F000057
:200E8000BDE10700042806D10649096904221143044A116105E00349096904229143014AC7
:200EA0001161704700E000E002480088401C01490880704700000020F8B500250024002656
:200EC0000027244840680C2108400546002D04D0042D06D0082D2AD107E01F481F490860C1
:200EE00029E01D481D49086025E01A4840680F21890408400446174840680321C903084019
:200F00000646A00C841C002E04D115486043134908600BE00F48C06A0007000F471C39460E
:200F20000D48FFF735F960430C49086003E00A480A49086000BF00BF06484068F02108401B
:200F4000000908490D5C05480068E84003490860F8BD00000010024000127A003400002056
:200F600000093D002400002010B50521C9040020FFF74CFE0120FFF735FE0020FFF710FE61
:200F80000020FFF71DFE00210B48FFF725FA0120FFF748FB0120FFF733FB00BF1920FFF70A
:200FA000D3FD0028FAD00220FFF742FE00BFFFF7EFFD0828FBD110BD00240140FFF77CFFD7
:200FC0000420FFF75FFF7D21C9004E480068FFF7DFF80446601E4C49884200D90CE0601EFD
:200FE0004A4948610321081FFFF7CEFC0020474988610720086100BFFFF77CFA81E00820CD
:00000001FF
