:020000040800F2
:10000000A0060020590100086101000863010008F2
:1000100000000000000000000000000000000000E0
:100020000000000000000000000000006501000862
:10003000000000000000000067010008510C0008EB
:100040006B010008000000006B0100086B01000854
:100050006B0100086B0100086B0100086B010008D0
:10006000000000006B0100086B0100086B01000834
:100070006B0100086B0100086B0100080000000024
:100080006B01000800000000000000006B01000888
:100090006B0100086B0100086B0100086B01000890
:1000A0006B010008450A00086B0100086B0100089D
:1000B0006B01000800F002F800F03EF80CA030C818
:1000C000083824182D18A246671EAB4654465D46D4
:1000D000AC4201D100F030F87E460F3E0FCCB64660
:1000E0000126334200D0FB1AA246AB4633431847E1
:1000F000600D0000800D0000103A02D378C878C16E
:10010000FAD8520701D330C830C101D504680C6059
:10011000704700000023002400250026103A01D378
:1001200078C1FBD8520700D330C100D50B607047AF
:100130001FB51FBD10B510BD00F0DAF81146FFF76E
:10014000F7FF00F0EBFD00F0F2F803B4FFF7F2FF69
:1001500003BC00F0F9F80000074880470748004753
:10016000FEE7FEE7FEE7FEE7FEE7FEE70448054997
:10017000054A064B70470000CD0C0008B50000088A
:10018000A0000020A0060020A0020020A002002065
:10019000002203098B422CD3030A8B4211D3002384
:1001A0009C464EE003460B433CD4002243088B425E
:1001B00031D303098B421CD3030A8B4201D39446EB
:1001C0003FE0C3098B4201D3CB01C01A52418309DE
:1001D0008B4201D38B01C01A524143098B4201D398
:1001E0004B01C01A524103098B4201D30B01C01AC3
:1001F0005241C3088B4201D3CB00C01A524183083D
:100200008B4201D38B00C01A524143088B4201D369
:100210004B00C01A5241411A00D2014652411046C9
:1002200070475DE0CA0F00D04942031000D340423E
:10023000534000229C4603098B422DD3030A8B4274
:1002400012D3FC22890112BA030A8B420CD3890112
:1002500092118B4208D3890192118B4204D38901F8
:100260003AD0921100E08909C3098B4201D3CB0136
:10027000C01A524183098B4201D38B01C01A5241EB
:1002800043098B4201D34B01C01A524103098B42EF
:1002900001D30B01C01A5241C3088B4201D3CB00DA
:1002A000C01A524183088B4201D38B00C01A5241BD
:1002B000D9D243088B4201D34B00C01A5241411A94
:1002C00000D20146634652415B10104601D34042C2
:1002D000002B00D54942704763465B1000D3404273
:1002E00001B50020C046C04602BD70477047704748
:1002F000754600F025F8AE46050069465346C0082D
:10030000C000854618B020B5FFF730FF60BC00275D
:100310004908B6460026C0C5C0C5C0C5C0C5C0C5D1
:10032000C0C5C0C5C0C5403D49008D46704710B529
:100330000446C046C0462046FFF707FF10BD000038
:10034000004870473C00002001491820ABBEFEE782
:10035000260002007047000030B589B0684600F002
:1003600089F90320694608710F2000900020C871A8
:1003700048710920C00600F035F902A800F095F890
:100380000121480200F0EAFA0A4C02A9204600F0D6
:100390004FF8204600F024F80121204600F017F81D
:1003A000054D2046294600F035F80028F9D009B05F
:1003B00030BD00000024014001000001836A0B43AE
:1003C0008362426170470160704701617047002994
:1003D000816801D0012200E0022211438160704750
:1003E000826800210123DB071A4382600F231B036D
:1003F0008268491CD20FD207994201D0002AF7D156
:100400008168002901DB006C704700207047006C98
:1004100080B2704702460020CB0104D592680123C8
:100420001B069A4300E012680A4200D00120704780
:1004300030B5C268084B8C681A400B680D792343AD
:10044000CC686D032C4323430C69496923430B4358
:100450001343C36030BD000003D2FFFF70B50F4CE3
:10046000054601212046FFF7D5FF0028F9D00722D5
:1004700029462046FFF7A2FF204600F011F804218C
:100480002046FFF7C7FF0028F9D004212046FFF7D8
:100490009AFF2046FFF7BBFF70BD0000002401401B
:1004A000816804221143816070470021016001715D
:1004B0008160C160016141617047000010B5012198
:1004C000480400F027FA0121880400F023FA0121F2
:1004D000880500F01FFA00F0E3F900F0A1F9FFF73A
:1004E0003BFF00F0D9F80449C4200870002000F058
:1004F00013F800F0C7FA10BD2400002010B5002842
:1005000005D000220221034800F0C0F810BD0122EE
:10051000F8E7000000040048F8B50126244C054621
:10052000F6033146204600F019F9012802D1204691
:1005300000F050F901204003030300901D480222FF
:100540000178204600F05CF90121204600F006F910
:100550000028F9D03146204600F000F90028F9D0F3
:100560002805010F204600F033F905E0314620460A
:1005700000F0F4F800281AD00121204600F0EEF82F
:100580000028F3D0E9B2204600F022F905E0314618
:10059000204600F0E3F8002809D02021204600F092
:1005A000DDF80028F3D02021204600F0CBF8F8BD7C
:1005B000005400402400002004491022002808684C
:1005C00001D0104300E090430860704700200240D3
:1005D000034A11684908490001431160704700004F
:1005E00000200240F0B50022032501230C6893404F
:1005F0001C409C422AD10C79012C01D0022C12D132
:10060000876854002E46A640B74387604E79A640BF
:1006100084682643866084889C43848084888B79A0
:1006200093401C438480066853002C469C40A6439C
:1006300006600E7907689E403E430660C668A64382
:10064000C660CC799C40C3681C43C460521C102A0D
:10065000CBD3F0BD4B07DB0E9A40C90810B589001B
:100660000818016A0F249C40A1430162016A1143EA
:10067000016210BD04490160002101710122427133
:100680008171C17170470000FFFF0000002A01D096
:10069000816170470185704710B58AB003A800F0EA
:1006A000A3F80121480500F041F9022069460872CB
:1006B000012088720321490201916946C87248727B
:1006C0000924E40601A92046FFF78CFF0422092132
:1006D0002046FFF7BFFF04220A212046FFF7BAFF9A
:1006E0000020AB210890079104901449144C059008
:1006F00006900391099003A9204600F037F80121E4
:10070000204600F021F861140B0300910122002122
:10071000204600F075F80121204600F01FF800285F
:10072000F9D00621204600F053F82021204600F0A1
:1007300009F8204600F04EF80AB010BD895E80101E
:1007400000540040C16170470029016802D00122B5
:10075000114301E04908490001607047024692696F
:1007600000200A4200D001207047000010B5026846
:100770005208520002600268134B8C681A4024022F
:100780004B681443234303600F230A681B069A43F4
:100790000261026801231A43026000228260C26083
:1007A0000B698A691A43826082680123DB031A435A
:1007B0008260CA680368134303604268034B496957
:1007C0001A401143416010BDFFE0CF00FF7FFF07DB
:1007D0008162704701684908490001600168016849
:1007E0000122114301607047002101604160816076
:1007F000C1600122D2030161426181617047000042
:1008000070B5049D44688905890D1204034E114397
:100810001943344029432143416070BD009800FCD6
:100820001CB56846FFF726FF0120694608710020C5
:100830008871022100916946C87148710348FFF729
:10084000D1FE0120FFF75AFE1CBD00000004004845
:1008500030B5827801240178002A15D08B080E4A21
:100860009B009A1813688907C90EFF258D40AB437A
:100870004578AD072D0E8D401D4315600078C006EC
:10088000C00E8440054804E0C806C00E84400348FA
:100890008030046030BD000000E400E000E100E0D2
:1008A0001CB56846FFF7E6FE012069460871002086
:1008B0008871032100916946C87148710348FFF7A8
:1008C00091FE032000F004F81CBD00000014004855
:1008D00010B50F4C002810D0012810D0022815D0D8
:1008E000032809D1002201212046FFF7CFFE012273
:1008F00002212046FFF7CAFE10BD012200E00022BF
:1009000001212046FFF7C2FE0022F1E70122EAE7BB
:1009100000140048044A0029516901D0014300E055
:10092000814351617047000000100240044A0029D1
:10093000D16901D0014300E08143D16170470000DB
:1009400000100240044A0029116901D0014300E06F
:10095000814311617047000000100240044A0029E1
:10096000916901D0014300E081439161704700002B
:1009700000100240044A0029D16801D0014300E080
:100980008143D16070470000001002400346002000
:100990000A4A59090CD001290CD002290CD0516BFC
:1009A000DA06D20E012393400B4200D0012070479B
:1009B0001168F5E7116AF3E7516AF1E700100240A8
:1009C000024840680C2108407047000000100240B7
:1009D000034A5168F0239943014351607047000076
:1009E00000100240034A516807231B029943014348
:1009F000516070470010024001220549120600288C
:100A0000086801D0104300E0904308607047000080
:100A10000010024010B5054A53687B24E403A34349
:100A20005360536808430343536010BD00100240F5
:100A3000034A5168890889000143516070470000EA
:100A40000010024010B50120FFF758FD0B4C204666
:100A500000F09CF80A49020405D5012240040A70FE
:100A6000400C088104E0002240040A70400CC88059
:100A70000121204600F05BF810BD0000003001406D
:100A800000000020F0B5012189B00803FFF766FFE0
:100A9000214E304600F04EF801A800F0A3F80024E3
:100AA00068460F21848009020181048201A9304631
:100AB00000F06EF8022168460177F02006900325C9
:100AC00068464577847701240927C477FF0606A97D
:100AD0003846FFF787FD002205213846FFF7BAFDAB
:100AE000002206213846FFF7B5FD002207213846CF
:100AF000FFF7B0FD01226021304600F03BF80121F4
:100B0000304600F00BF8192168460170457084707A
:100B1000FFF79EFE09B0F0BD0030014040220029E1
:100B2000018801D0114300E0914301807047C9431F
:100B3000018170470D4910B5884209D18414012103
:100B40002046FFF717FF00212046FFF713FF10BDD7
:100B500007498842FBD1041401212046FFF7F2FE29
:100B600000212046FFF7EEFE10BD000000300140DE
:100B700000380040090901238B40002A828899B27D
:100B800001D00A4300E08A43828070478089704721
:100B900030B50388C122920113400A88CC890D899F
:100BA0002243CC882C4322434C8922438C89224304
:100BB0001A4302808288094B1A408B881343838032
:100BC0000A8A02820288042349889A4311430180D9
:100BD000818B034A1140818330BD0000FFF000008B
:100BE000FFF700000021018007224180120282806D
:100BF000C180018141818181C181072101827047CA
:100C00000B4910B548430B4940184414002C05DC2F
:100C100000240120FFF75CFE002003E00020FFF726
:100C200057FE0120FFF76AFCA0B2FFF775FC10BD6C
:100C30002C4000001123F7FF04220449042808690E
:100C400002D09043086170471043FBE700E000E0EA
:100C500002488188491C8180704700000000002004
:100C600070B5164E71680C2001401548154C03D024
:100C7000042901D0082901D0606014E0726871680D
:100C800003239202DB03150F1940AD1C002907D086
:100C9000F16A0907090F491CFFF77AFA6843EBE785
:100CA000094845436560706806490006000F083131
:100CB000085C6168C140616070BD000000100240C6
:100CC00000127A002400002000093D0010B5052123
:100CD000C9040020FFF79EFE0120FFF78DFE0020D3
:100CE000FFF776FE0020FFF77DFE00210A48FFF7A0
:100CF0006CFB0120FFF76CFC0120FFF75DFC192065
:100D0000FFF744FE0028FAD00220FFF791FEFFF71C
:100D100057FE0828FBD110BD00240140FFF7A0FFBB
:100D20000420FFF789FF3A487D21C9000068FFF7DA
:100D30002FFA38490025401E88420BD836494861B1
:100D400036480722C3691B021B0A4C042343C361B4
:100D50008D610A61FFF7B2FB314E324F324C0820F1
:100D6000FFF77CFB32214843E0600420FFF776FB6D
:100D70002E4948432E49FFF70BFA3238A061A0698B
:100D80002C4948432C49081A2062A0697D2800D9C3
:100D90002562206AB04200D92662206A7D21C900FE
:100DA0004843E168FFF7F4F9E061E1687D20000164
:100DB000814205D20020FFF723FF642000F03EF8B7
:100DC000E069B84200D9E7612078002807D020897F
:100DD0000A214843216A88420BD9206A0CE0E08846
:100DE000E169884201D9E06900E0E088206120697A
:100DF0000AE020890A214843606160697D21C900B9
:100E00004843E168FFF7C4F9FFF7FAFEA7E70000DF
:100E100028000020FFFFFF0000E000E004ED00E0FC
:100E200080A90300204E000000000020F202000014
:100E30001C25000098080000981C050003498A88BA
:100E40008B889B1A8342FBDD704700000000002066
:100E5000700E0008000000203C000000F8000008B0
:100E6000AC0E00083C0000206406000014010008DD
:100E70000000000000000000000000000000000072
:100E80000000000000000000000000000000000062
:100E9000000000000000000000127A0000000000C6
:0C0EA0000000000001020304060708091E
:040000050800015995
:00000001FF
