:020000040800F2
:20000000B0060020BD010008C5010008C7010008C9010008CB010008CD010008000000002A
:20002000000000000000000000000000CF010008D101000800000000D301000849090008D8
:20004000D7010008D7010008D7010008D7010008D7010008D7010008D7010008D7010008A0
:20006000D7010008D7010008D7010008D7010008D7010008D7010008D7010008D701000880
:20008000D7010008D7010008D701000800000000000000000000000000000000D7010008E0
:2000A000D7010008D7010008D7010008D7010008D7010008D7010008D7010008D701000840
:2000C000D7010008D7010008D7010008D7010008D7010008D7010008D7010008D701000820
:2000E000D7010008D7010008D7010008000000000000000000000000000000000000000060
:20010000000000000000000000000000000000000000000000000000D7010008D70100081F
:2001200000F002F800F03AF80AA090E8000C82448344AAF10107DA4501D100F02FF8AFF2AC
:20014000090EBAE80F0013F0010F18BFFB1A43F001031847C80C0000E80C0000103A24BF4D
:2001600078C878C1FAD8520724BF30C830C144BF04680C60704700000023002400250026EB
:20018000103A28BF78C1FBD8520728BF30C148BF0B6070471FB51FBD10B510BD00F031F86D
:2001A0001146FFF7F7FF00F0E7FC00F04FF803B4FFF7F2FF03BC00F057F80000094880473E
:2001C00009480047FEE7FEE7FEE7FEE7FEE7FEE7FEE7FEE7FEE7FEE704480549054A064B5B
:2001E00070470000010B000821010008B0000020B0060020B0020020B00200207047704752
:200200007047754600F02CF8AE4605006946534620F00700854618B020B5FFF7DDFFBDE821
:2002200020404FF000064FF000074FF000084FF0000B21F00701AC46ACE8C009ACE8C0097D
:20024000ACE8C009ACE8C0098D46704710B50446AFF300802046BDE81040FFF7A8BF000071
:20026000004870474C00002001491820ABBEFEE7260002007047000008B50121134800F03A
:20028000B7F810208DF80300FF20ADF8000001208DF8020069460E4800F01EF8FF210C480C
:2002A00000F0F4F810208DF803004FF4F850ADF8000001208DF802006946064800F00CF8E1
:2002C0004FF4F851034800F0DFF808BD00023000000C0140000801402DE9F041024600253F
:2002E0000026002000230024002791F803C00CF00F0591F803C00CF0100CBCF1000F03D0FB
:2003000091F802C04CEA050591F800C0BCF1000F31D0146800202BE04FF0010C0CFA00F360
:20032000B1F800C00CEA03069E4220D183004FF00F0C0CFA03F7BC4305FA03FC4CEA04046C
:2003400091F803C0BCF1280F06D14FF0010C0CFA00FCC2F814C00AE091F803C0BCF1480F80
:2003600005D14FF0010C0CFA00FCC2F810C0401C0828D1D31460B1F800C0BCF1FF0F34DDF6
:20038000546800202EE000F1080C4FF0010808FA0CF3B1F800C00CEA03069E4221D1830068
:2003A0004FF00F0C0CFA03F7BC4305FA03FC4CEA040491F803C0BCF1280F05D100F1080C9D
:2003C00008FA0CF8C2F8148091F803C0BCF1480F07D100F1080C4FF0010808FA0CF8C2F894
:2003E0001080401C0828CED35460BDE8F0810000F0B50A46002300240021002500F00046BE
:20040000B6F1004F02D11D4EF16901E01B4E7168C0F3034583B200F44016B6F5401F08D1CE
:2004200021F07061154E766826F07066134F7E6012E000F48016B6F5801F06D1032606FAA7
:2004400005F4A14341F0706106E0460D360103FA06F6B14341F0706122B1460D360103FA04
:2004600006F6314300F00046B6F1004F02D1034EF16101E0014E7160F0BD0000000001407B
:200480000146886880B27047416170470161704738B510208DF803004FF47040ADF800008D
:2004A00001208DF802004FF470410F48FFF7EEFF69460D48FFF710FF4FF470410A48FFF721
:2004C000E5FF0948FFF7DCFFC0F3032404208DF8030069460448FFF7FFFE4FF47041024864
:2004E000FFF7D2FF204638BD000C014008B504208DF803004FF47F40ADF8000001208DF8D7
:20050000020069460448FFF7E7FE4FF47F410248FFF7BAFF08BD0000000C014008B5102008
:200520008DF803000F20ADF8000001208DF8020069460448FFF7D0FE0F210248FFF7A4FFE5
:2005400008BD00000008014001460020034A506820F4404008435060704700000010024089
:2005600029B1064A92690243044B9A6104E0034A92698243014B9A61704700000010024086
:200580000248406800F00C00704700000010024001460020034A506820F0F00008435060FD
:2005A000704700000010024001460020034A506820F4E0600843506070470000001002406E
:2005C00001460020034A506820F4605040EAC10050607047001002400149086670470000D8
:2005E0000000424202460020044B586820F47C1042EA01031843014B5860704700100240C8
:2006000001460020034A506820F0030008435060704700000010024070B500241CE02046AC
:2006200000F076F80E48FFF72BFFC0F303258DB1002100BF06E005F0010000B104E06D10FF
:20064000481CC1B20329F6DB00BF01EB8400054A105C70BD601CC4B2032CE0DDFF20F8E7D3
:20066000000C01402400002021B1028842F04002028004E002884FF6BF731A40028070471F
:200680000246002013890B400BB1012000E0002070478181704710B50022028802F44152C4
:2006A0000B884C8823438C882343CC8823430C8923434C8923438C892343CC8923431A4370
:2006C0000280838B4FF2FF74234083830B8A038210BD0021018041808180C180018141819D
:2006E0008181C181072101827047000010B504464FF4F8510548FFF7C7FE4FF4805040FA64
:2007000004F10248FFF7C2FE10BD00000008014038B5044604208DF8030069460F48FFF7EF
:20072000DBFD4FF470410D48FFF7AEFE10208DF803000002A04080B2ADF8000001208DF8DF
:20074000020069460548FFF7C7FD4FF48050A04081B20248FFF79AFE38BD0000000C0140A1
:2007600070B5054600BF80211648FFF789FF0128F9D04FF400411448FFF786FE002401E07C
:20078000601CC4B2142CFBDB29460E48FFF781FF00BF80210B48FFF773FF0128F9D000BF4A
:2007A00002210848FFF76CFF0028F9D0002401E0601CC4B2282CFBDB4FF400410248FFF78F
:2007C00065FE70BD003001400010014000B587B018208DF81B0048F2A000ADF81800032049
:2007E0008DF81A0006A92B48FFF776FD4FF400412848FFF74BFE04208DF81B004020ADF8D3
:20080000180003208DF81A0006A92248FFF764FD10208DF81B004FF46040ADF818000320FB
:200820008DF81A0006A91C48FFF756FD4FF460411948FFF72BFE10208DF81B000320ADF8C1
:2008400018008DF81A0006A91448FFF745FD03211148FFF71BFE01210803FFF781FE01A8C7
:20086000FFF737FF4FF48270ADF806004FF40060ADF808008010ADF80E002820ADF81000DC
:2008800001A90748FFF707FF01210548FFF7ECFE07B000BD000801400010014000140140B1
:2008A0000030014070B504460D460948005DC043C1B20848FFF7EAFD0548015D0548FFF7C6
:2008C000E3FD012D03D180210248FFF7DDFD70BD14000020000C014010B503210D48FFF799
:2008E000D3FD0D48007808B9012000E0022001460848FFF7CBFD0C210648FFF7C5FD0748A0
:20090000007808B9082000E0042001460148FFF7BDFD10BD00080140350000203600002071
:20092000042808D14FF0E021096941F004014FF0E022116107E04FF0E021096921F0040168
:200940004FF0E0221161704710B53F480078401C3D49087008460078042801DB00200870A9
:2009600039480078FFF7C2FE384A12780AB9012200E00022344B1B78022B01D1012300E0BF
:2009800000231A40314B1B78012B00D100E000232D4C2478012C00D100E00024234042EA25
:2009A00003012B4A284B1B78D05CFFF77BFF29480068401C274908600846006800F03F002A
:2009C00008B9FFF789FF2448008824490988884201D0012000E0002021490978214A12784A
:2009E000914201D0012100E000210843174909781D4A1278914201D0012100E00021084301
:200A0000A0B11748007840B9104909784FF6FF7202EAC130FFF7A4FE08E00F4909880B4A8A
:200A2000127801EBC23188B2FFF79AFE0A4800880A4908800A4800780A4908700348007878
:200A40000949087010BD0000480000203500002037000020200000204200002046000020E3
:200A600036000020450000204400002030B500210020002200231D4C646804F00C0121B1E4
:200A8000042906D0082920D107E0194C194D2C601FE0174C174D2C601BE0144C646804F482
:200AA0007010124C646804F48032022404EB904022B9114C44430F4D2C6005E00C4CB4FB6A
:200AC000F3F444430B4D2C6003E0094C094D2C6000BF00BF054C6468C4F30314074D295D67
:200AE000044C2468CC40034D2C6030BD0010024000127A000000002000093D0004000020DD
:200B000010B54FF480110020FFF76CFD0120FFF763FD00BF1748006800F000700028F9D06F
:200B20000020FFF735FD0020FFF73EFD4FF48060FFF746FD0020FFF707FD0220FFF760FD31
:200B400000BFFFF71DFD0828FBD101210420FFF707FD01210820FFF703FD01210846FFF7E4
:200B6000FFFC01211020FFF7FBFC01212020FFF7F7FC10BD00100240FFF778FF0420FFF74A
:200B8000CFFE974800684FF47A72B0FBF2F1B1F1807F00D31DE021F07F40401E4FF0E022A4
:200BA000506150170F22002807DA13071D0E8D4B00F00F04241F1D5503E013071C0E8A4B12
:200BC0001C5400BF00204FF0E02290610720106100BFFFF751FBFFF7A1FCFFF787FCFFF7F9
:200BE000F5FD00BF00BFF9E000BFFFF751FC0028FBD0FFF711FD7D490870084600780D287A
:200C00007EDC0024084600780E287AD2DFE800F03435363738393A3B3C3D07192C30002086
:200C20007349087073490870002404E0002072490855601CC4B2052CF8DB00206F490880B6
:200C4000B2E000206A49087001206A490870002404E0002068490855601CC4B2052CF8DB3F
:200C60000020664908809FE00120614908709BE000205F49087097E000BF00BF00BF00BF2D
:200C800000BF00BF00BF00BF00BF0125002405E05948005D5A490855601CC4B2052CF7DB77
:200CA000002404E00B2054490855601CC4B2052CF8DB4E4800785049087051E0FA2000F0B7
:200CC000A1F800BFFFF7E4FB0028FBD0FFF7A4FC4649087008460078102840D2DFE800F090
:200CE00008090A0B0C0D0E0F13143F3F3F23273300BF00BF00BF00BF00BF00BF00BF01E01D
:200D000069E050E000BF00BF042405E0601E3A49085C0855601EC4B2002CF7DC3348007827
:200D2000354908701BE000203149087017E00025002405E03048005D31490855601CC4B2ED
:200D4000052CF7DB0BE00025002405E02C48005D29490855601CC4B2052CF7DB00BF00BF64
:200D6000002DABD1002408E02348005D0B2802D1002021490855601CC4B2052CF4DB0020F7
:200D80001D4908710846C07804280BDB002404E0002019490855601CC4B2032CF8DB0420DD
:200DA0001549C87000E000BF00BF134880781249C9780A2202FB01000F49497802FB001000
:200DC0000D49097802FB001000EB80004004000C0A49088000BF322000F014F804E70000A1
:200DE0000000002018ED00E000E400E0340000203600002035000020370000204200002072
:200E00003C000020044A116800BF034A1268521A8242FAD970470000200000203C0E0008DD
:200E2000000000204C0000005C010008880E00084C000020640600007801000800127A0060
:200E4000000000000000000001020304060708093F065B4F666D7D077F6F00000000000036
:200E60000102030A0405060B0708090C0E000F0D00000000000000000000000000000000FA
:200E80000000000000000000FFFFFFFFFFFFFFFFFFFFFFFFFFFFFFFFFFFFFFFFFFFFFFFF6A
:200EA000FFFFFFFFFFFFFFFFFFFFFFFFFFFFFFFFFFFFFFFFFFFFFFFFFFFFFFFFFFFFFFFF52
:200EC000FFFFFFFFFFFFFFFFFFFFFFFFFFFFFFFFFFFFFFFFFFFFFFFFFFFFFFFFFFFFFFFF32
:200EE000FFFFFFFFFFFFFFFFFFFFFFFFFFFFFFFFFFFFFFFFFFFFFFFFFFFFFFFFFFFFFFFF12
:200F0000FFFFFFFFFFFFFFFFFFFFFFFFFFFFFFFFFFFFFFFFFFFFFFFFFFFFFFFFFFFFFFFFF1
:200F2000FFFFFFFFFFFFFFFFFFFFFFFFFFFFFFFFFFFFFFFFFFFFFFFFFFFFFFFFFFFFFFFFD1
:200F4000FFFFFFFFFFFFFFFFFFFFFFFFFFFFFFFFFFFFFFFFFFFFFFFFFFFFFFFFFFFFFFFFB1
:200F6000FFFFFFFFFFFFFFFFFFFFFFFFFFFFFFFFFFFFFFFFFFFFFFFFFFFFFFFFFFFFFFFF91
:200F8000FFFFFFFFFFFFFFFFFFFFFFFFFFFFFFFFFFFFFFFFFFFFFFFFFFFFFFFFFFFFFFFF71
:200FA000FFFFFFFFFFFFFFFFFFFFFFFFFFFFFFFFFFFFFFFFFFFFFFFFFFFFFFFFFFFFFFFF51
:200FC000FFFFFFFFFFFFFFFFFFFFFFFFFFFFFFFFFFFFFFFFFFFFFFFFFFFFFFFFFFFFFFFF31
:200FE000FFFFFFFFFFFFFFFFFFFFFFFFFFFFFFFFFFFFFFFFFFFFFFFFFFFFFFFFFFFFFFFF11
:00000001FF
